:1000000000800020BD010000DD050000DD050000CE
:10001000DD050000DD050000DD050000A90500008C
:10002000A9050000A9050000A9050000DD050000E4
:10003000DD050000A9050000DD05000099050000B0
:10004000DD050000DD050000DD050000DD05000028
:10005000DD050000DD050000DD050000DD05000018
:10006000DD050000DD050000DD050000DD05000008
:10007000DD050000DD050000DD050000DD050000F8
:10008000DD050000DD050000DD050000DD050000E8
:10009000DD050000DD050000DD050000DD050000D8
:1000A000DD050000DD050000DD050000DD050000C8
:1000B000DD050000DD050000DD050000DD050000B8
:1000C000DD050000DD050000DD050000DD050000A8
:1000D000DD050000DD050000DD050000DD05000098
:1000E000DD050000DD050000DD050000DD05000088
:1000F000DD050000C90D0000DD0500004111000014
:10010000DD05000079140000DD050000DD050000BC
:10011000DD050000DD050000DD050000DD05000057
:10012000DD050000DD050000DD050000DD05000047
:10013000DD050000DD050000DD050000DD05000037
:10014000DD050000DD050000DD050000DD05000027
:10015000F9220000112300002923000041230000A0
:10016000DD05000025170000DD050000DD050000AD
:10017000DD050000DD050000DD050000DD050000F7
:10018000DD050000DD050000DD050000DD050000E7
:10019000DD050000DD050000DD050000A50600000E
:1001A000F50600007D07000039080000BD080000CA
:1001B000DD050000DD050000992000004F4B4CF2EA
:1001C000205210B51A804DF628121A80102223F8FA
:1001D0000E2C00F006FA4A4B4FF010621A60494AA2
:1001E0009A60494ADA60494B1A6812F4807204D165
:1001F00047490A604FF4A8521A60464B1A7802F039
:100200000802D2B21AB11A7842F008021A7000231A
:10021000414A4248424C02E0195999500433991816
:100220008142F9D33F4B404A002101E043F8041BCF
:100230009342FBD33D4B00221A603D4B3D4A802147
:1002400003F8011B9342FBD13B4B0A221A703B4B34
:1002500024221A70A02203F8012C394A137803F0E3
:100260000203DBB2002BF9D0354A137803F01003F8
:10027000DBB2002BF9D1324A137803F00C03082BC0
:10028000FAD1304B03221A7040225A702C4A13784C
:1002900003F02003DBB2002BF9D0294A137803F0D6
:1002A0004003DBB2002BF9D0274A284B1A60284BB9
:1002B00020221A70224A137803F00C030C2BFAD177
:1002C000244B02221A60244A43F8442C234B244A2C
:1002D0001A60072243F8042C62B600F017FB0C4B9F
:1002E0001B68DC0702D51F4800F000FB02F09CFAF7
:1002F00000F077F902F0C2F8FEE700BF0E200540DB
:1003000030800440823F04000100002B10D00340E5
:1003100014D0034002D007400084FF1FB489FF1FA0
:1003200038350000B489FF1F5890FF1F08ED00E02A
:1003300000E400E05FE400E00050064001400640B9
:10034000064006400440064000000301448004408B
:100350000040064048800440C010050014E000E062
:10036000FF76010000DD6850FFFFFFFFFFFFFFFF8A
:10037000FFFFFFFFFFFFFFFFFFFFFFFFFFFFFFFF8D
:10038000FFFFFFFFFFFFFFFFFFFFFFFFFFFFFFFF7D
:10039000FFFFFFFFFFFFFFFFFFFFFFFFFFFFFFFF6D
:1003A000FFFFFFFFFFFFFFFFFFFFFFFFFFFFFFFF5D
:1003B000FFFFFFFFFFFFFFFFFFFFFFFFFFFFFFFF4D
:1003C000FFFFFFFFFFFFFFFFFFFFFFFFFFFFFFFF3D
:1003D000FFFFFFFFFFFFFFFFFFFFFFFFFFFFFFFF2D
:1003E000FFFFFFFFFFFFFFFFFFFFFFFFFFFFFFFF1D
:1003F000FFFFFFFFFFFFFFFFFFFFFFFFFFFFFFFF0D
:10040000FFFFFFFFFFFFFFFFFFFFFFFFFEFFFFFFFD
:1004100008B548F6B410074BC1F6FF701B1A062B3F
:1004200000D808BD40F20003C0F20003002BF8D052
:100430009847F6E7B789FF1F08B548F6B41048F6A5
:10044000B413C1F6FF70C1F6FF731B1A9B1003EBC8
:10045000D373591000D108BD40F20002C0F200026F
:10046000002AF8D09047F6E710B548F6B414C1F664
:10047000FF74237873B9FFF7CBFF40F20003C0F29B
:1004800000032BB143F23850C0F20000AFF30080FC
:100490000123237010BD00BF08B540F20003C0F275
:1004A00000034BB143F2385048F6B811C0F20000D7
:1004B000C1F6FF71AFF3008048F6B410C1F6FF70CB
:1004C00003682BB140F20003C0F2000303B1984768
:1004D000BDE80840FFF7B0BF224B60221A70E1224E
:1004E0005A70214B214A1978214B082901D1012149
:1004F00002E00A2907D13921116013221A601D4B2D
:1005000019605A600BE00C291A4901D1352000E02E
:100510003D20106012221A60174B08601A60174BBA
:1005200017491B78174A03B101230B601360164B60
:10053000164A1978164B012901D880210CE00429AC
:1005400001D8842108E0082901D8852104E0102978
:1005500001D8862100E08721116019600D4B01222E
:100560001A707047004007400484FF1F08B0034022
:100570000CB0034008B00B400CB00B40D189FF1FFA
:1005800020B0034020B00B400584FF1F24B003407F
:1005900024B00B40D089FF1F024B1A6801321A6049
:1005A000704700BF5C8AFF1F38B50B4C2546236897
:1005B000580301D501F0B6F82B68590501D500F0B4
:1005C00003FC2B681A0501D500F0BAFD2368DB0493
:1005D000EDD500F051FFEAE73480044008B5FFF79D
:1005E000E3FF7047024A13681818106018467047F6
:1005F0000884FF1FEFF313839BB9EFF3108098B9C2
:10060000EFF3058323B10F2B04D9084A985C01E06E
:100610004FF48070EFF311833BB1984228BF184626
:1006200070474FF0FF30704718467047F0E300E026
:10063000002300E00133C25C002AFBD1184670475A
:1006400010B50023B0FBF2F402FB1400092801D816
:10065000303000E03730C85420460CB10133F1E7A8
:10066000CA185470224605E0885CCC5C8C54C8548F
:100670000132013B9A42F7DB084610BD084B4FF4AC
:1006800000021A604FF080721A604FF000721A6018
:100690004FF080621A604FF000621A60704700BF2E
:1006A00008E100E0114B10B51C68E0041C6004D5A3
:1006B0000F4BDA680AB1DB689847A10404D50C4BEC
:1006C0001A690AB11B699847A20604D5084B1A6E2D
:1006D0000AB11B6E9847E30606D5054BD3F8842074
:1006E00012B1D3F88430984710BD00BFA0900440E9
:1006F000D489FF1F1F4B10B51C68E0031C6004D594
:100700001D4B1A680AB11B689847A10304D51A4B00
:100710005A680AB15B689847E20704D5164B1A6C11
:100720000AB11B6C9847A30704D5134B5A6C0AB146
:100730005B6C9847200704D50F4B9A6C0AB19B6CF1
:100740009847610704D50C4BDA6C0AB1DB6C98470B
:10075000220304D5084B5A6E0AB15B6E98476303B7
:1007600006D5054BD3F8802012B1D3F880309847D6
:1007700010BD00BFA0A00440D489FF1F2C4B10B5B2
:100780001C6820071C6004D52A4B5A6A0AB15B6AB0
:100790009847E10604D5274B9A6A0AB19B6A9847A5
:1007A000620604D5234BDA6A0AB1DB6A984723064E
:1007B00004D5204B1A6B0AB11B6B9847A00604D5D1
:1007C0001C4B5A6B0AB15B6B9847E10704D5194B78
:1007D000DA6B0AB1DB6B9847A20704D5154B9A6D0B
:1007E0000AB19B6D9847630704D5124BDA6D0AB1C5
:1007F000DB6D9847A00504D50E4BDA6E0AB1DB6EAF
:100800009847E10504D50B4B1A6F0AB11B6F984747
:10081000620504D5074B5A6F0AB15B6F98472305F1
:1008200004D5044B9A6F0AB19B6F984710BD00BF67
:10083000A0B00440D489FF1F1E4B10B51C68E00710
:100840001C6004D51C4B9A680AB19B689847210626
:1008500004D5194B5A690AB15B699847E20604D579
:10086000154B9A690AB19B699847630704D5124BE7
:10087000DA690AB1DB699847200704D50E4B1A6A7A
:100880000AB11B6A9847A10704D50B4B9A6B0AB1B2
:100890009B6B9847A20604D5074B1A6D0AB11B6DD6
:1008A0009847630604D5044B5A6D0AB15B6D9847AF
:1008B00010BD00BFA0C00440D489FF1F094B10B574
:1008C0001C68A2071C6004D5074B9A6E0AB19B6E88
:1008D0009847E30704D5044BDA6F0AB1DB6F9847FA
:1008E00010BD00BFA0D00440D489FF1F044B0549B0
:1008F00000221A600A60044A106010221A607047D1
:1009000014D0034004D0034000D0034010B5FFF7DB
:10091000B5FE144B144A154C00204BF6FF711860BD
:10092000596028231360936013619361136293628B
:1009300013639363092222600D4C20606160A36001
:10094000236144F8042C0B4C20600B4801600B49D8
:100950000B608B600A4B1A60FFF7BEFDBDE81040CC
:1009600001F0F6B9048003400C800340008003408E
:100970000490034004800B4008800B400C800B4027
:1009800000800B40212810B518D80D4A52F830309D
:1009900093F880423CB1012211B183F8802010BD50
:1009A00083F8002110BD02EBC00043681A6811B142
:1009B00042F0030201E022F002021A6010BD00BF03
:1009C0004C320000212816D80B4A02EBC003012943
:1009D0005B6852F8302004D182F880124FF4A27282
:1009E00008E0002082F8800211B94FF4807201E023
:1009F00040F203121A6070474C32000072B60B4B83
:100A00000B491A680B4B1B68096862B6490102D58D
:100A1000322A88BF0133C2F5BB32FF326021B2FBFC
:100A2000F1F24FF47A7000FB0320704718E000E009
:100A300004ED00E05C8AFF1F70B50446FFF7DEFF9F
:100A400005466CB140F2E736FFF7D8FF401BB042D5
:100A500003D9013C04D005F57A7501F01BFBF3E7DF
:100A600070BDFFFF1B4B1A6842F480621A601A4A7D
:100A700000231370194A1370194A1370194A13701E
:100A8000194A1370194B40F213321A604FF4517225
:100A90005A60174BC0F344321A70C0F347125A70B1
:100AA00000F01F00134A987202210423137051743E
:100AB000D374114B88221A703C2203F80D2C0F4B73
:100AC00040226FF44A711A705B184FF400521A609A
:100AD000704700BF34800440E28AFF1F618AFF1F15
:100AE000E48AFF1FE38AFF1F608AFF1F40A00440C3
:100AF00000A0064002A0064010A006402DE400E041
:100B0000134A137800F0030103F0EC030B43410791
:100B100048BF43F01003137000F00F03042B04D1FF
:100B20000C4B1A7842F040021A700B4A1378C10637
:100B300003F0EF0348BF43F010031370054A137826
:100B4000800603F0EF0348BF43F0100313707047B3
:100B500002A0064006A0064005A006400E4B1B68FA
:100B6000580510B503D410BD01F094FA00E00B4C09
:100B70002378002BF8D10A4A4FF400511160094A3A
:100B80000949137040F203120A604A60074A137061
:100B9000074A137010BD00BF34800440608AFF1FF5
:100BA00084E100E003A0064040A00440E28AFF1F69
:100BB000618AFF1F1B4B1B685A052DE9F041064651
:100BC0002DD5194B194D1C78194FDFF86C80013465
:100BD0003F2C88BF002415E0FFF70CFD40280DDCFA
:100BE0003B781B060ED52B78124A01333F2B88BF6A
:100BF000002318F8031011702B7003E0FF2801DDAB
:100C000001F048FA2B78A342E6D00B4B1E550B4B54
:100C100001221A70044B1C70094BBC221A70BDE8EB
:100C2000F08100BF34800440E48AFF1FE38AFF1F85
:100C300004A0064007A00640628AFF1F608AFF1FCB
:100C400003A006402DE9F84F234B1B6806465805C4
:100C500088463ED5214DB346A94633E0204B1C784B
:100C60002F7801343F2C88BF0024A74209D01BF8FD
:100C7000012B1C4B1A551C4B01221A70184B1C706F
:100C800020E01A4BDFF86CA0BC221A70FFF7B2FC10
:100C900040280FDC9AF8003019060FD52B78114A3E
:100CA00001333F2B88BF0023D15C114A117089F8B2
:100CB000003003E0FF2801DD01F0ECF92B78BB42A6
:100CC000E4D0D4E706EB08039B45C7D3074BBC220F
:100CD0001A70BDE8F88F00BF34800440E38AFF1F1C
:100CE000E48AFF1F628AFF1F608AFF1F03A006407D
:100CF00007A0064004A0064010B5044C01E001F036
:100D0000C9F92378002BFAD110BD00BF608AFF1FFC
:100D1000044B1878044B1B78984238BF4030C01AF7
:100D2000704700BFE28AFF1F618AFF1F084B094A14
:100D300019781378994207D001333F2B88BF0023DD
:100D40000549C85C137070474FF0FF30704700BF13
:100D5000E28AFF1F618AFF1FA28AFF1F074B1A78D2
:100D6000074B1B789A4206D001333F2B88BF0023E4
:100D7000044AD05C70474FF0FF307047E28AFF1F93
:100D8000618AFF1FA28AFF1F0A4B1B685B050FD5F4
:100D9000094B1A7802F0CB021A70084A40211170F0
:100DA0001A7842F034021A70054B1A78054B1A7003
:100DB000704700BF3480044003A0064011A00640E5
:100DC000618AFF1FE28AFF1FF0B52E4B1B7813F0DC
:100DD000300F20D072B62C4B197831B90F3B40221E
:100DE0001B782A4B1A7062B615E062B6284B294C64
:100DF0001A78294B294D1878531C3F2B88BF0023A4
:100E0000267883421CBFEE541A46013911F0FF01C7
:100E1000F2D11F4B1A70224B1B7819465BB2002B84
:100E20001FDA184A137818061BD51E4B1E4E1F7862
:100E30001E4B184D1B781E4CBB4209D001333F2B73
:100E400088BF00231078F05C287020780728F3D939
:100E5000164A13700B4B1B781A0602D5104B7C22D6
:100E60001A7001F04003DBB25BB1064B1B7803F054
:100E70004003DBB22BB10F4B00221A70084B3C220F
:100E80001A70F0BD04A0064016A0064011A006404E
:100E9000E28AFF1F07A00640618AFF1FA28AFF1F88
:100EA00003A00640E48AFF1F628AFF1FE38AFF1F38
:100EB00014A00640608AFF1F164B1A6842F40062B5
:100EC0001A60154A00231370144A1370144A1370E1
:100ED000144A1370144A1370144A40F2133111600B
:100EE0004FF451715160124AC0F344311170C0F394
:100EF000471100F01F0051709072937013740D4BE6
:100F00002C221A700C4B40221A700C4B4FF40042EA
:100F10001A607047348004404F8BFF1FE68AFF1F22
:100F2000518BFF1F508BFF1FE58AFF1F0CB0044041
:100F300000B0064003B006402FE400E004E100E00A
:100F4000134A137800F0030103F0EC030B4341074D
:100F500048BF43F01003137000F00F03042B04D1BB
:100F60000C4B1A7842F040021A700B4A1378C106F3
:100F700003F0EF0348BF43F010031370054A1378E2
:100F8000810603F0EF0348BF43F01003137070476E
:100F900002B0064006B0064005B006400E4B1B6886
:100FA000180510B503D410BD01F074F800E00B4C27
:100FB0002378002BF8D10A4A4FF400411160094A06
:100FC0000949137040F203120A604A60074A13701D
:100FD000074A137010BD00BF34800440E58AFF1F2C
:100FE00084E100E003B006400CB004404F8BFF1FCB
:100FF000E68AFF1F1B4B1B681A052DE9F0410646C8
:101000002DD5194B194D1C78194FDFF86C80013420
:10101000272C88BF002415E0FFF7ECFA40280DDCF0
:101020003B781B060ED52B78124A0133272B88BF3D
:10103000002318F8031011702B7003E0FF2801DD66
:1010400001F028F82B78A342E6D00B4B1E550B4B32
:1010500001221A70044B1C70094BAC221A70BDE8B7
:10106000F08100BF34800440518BFF1F508BFF1F65
:1010700004B0064007B00640E78AFF1FE58AFF1F5D
:1010800003B0064038B54518044603E014F8010BD8
:10109000FFF7B0FFAC42F9D138BDFFFF10B5044CEB
:1010A00001E000F0F7FF2378002BFAD110BD00BF5C
:1010B000E58AFF1F044B1878044B1B78984238BF11
:1010C0004030C01A704700BF4F8BFF1FE68AFF1FDA
:1010D000084B094A19781378994207D001333F2BFE
:1010E00088BF00230549C85C137070474FF0FF307C
:1010F000704700BF4F8BFF1FE68AFF1F0F8BFF1F3C
:10110000074B1A78074B1B789A4206D001333F2BC6
:1011100088BF0023044AD05C70474FF0FF3070470F
:101120004F8BFF1FE68AFF1F0F8BFF1F024B1A78A2
:10113000024B1A70704700BFE68AFF1F4F8BFF1FDC
:1011400010B5214B1B7803F02003DBB273B11F4BAA
:101150001F4A18781F491378097801333F2B88BF3D
:1011600000238B4202D01C49C85413701B490B78D2
:1011700018465BB2002B15DA134B1B781B0611D5F2
:10118000174B184A1C7813789C4202D16C230B70C1
:1011900008E00133272B88BF00231349CC5C0B499F
:1011A0000C70137000F04003DBB25BB1064B1B7890
:1011B00003F04003DBB22BB10C4B00221A70074B3B
:1011C0002C221A7010BD00BF04B0064007B00640C4
:1011D0004F8BFF1FE68AFF1F0F8BFF1F03B00640D8
:1011E000518BFF1F508BFF1FE78AFF1FE58AFF1FF0
:1011F000174B1A6842F480521A60164A0023137083
:10120000154A1370154A1370154A1370154A137056
:10121000154A40F2133111604FF451715160134A75
:10122000C0F344311170C0F3471100F01F0051703A
:101230009072937013740E4B2C221A700D4B402237
:101240006FF44B711A705B184FF400321A607047DC
:1012500034800440BC8BFF1F538BFF1FBE8BFF1FCE
:10126000BD8BFF1F528BFF1F08C0044000C006400B
:1012700003C0064031E400E0134A137800F0030194
:1012800003F0EC030B43410748BF43F01003137016
:1012900000F00F03042B04D10C4B1A7842F04002EB
:1012A0001A700B4A1378C10603F0EF0348BF43F0EE
:1012B00010031370054A1378800603F0EF0348BF4C
:1012C00043F010031370704702C0064006C006408A
:1012D00005C006400E4B1B68D80410B503D410BDE2
:1012E00000F0D8FE00E00B4C2378002BF8D10A4A1E
:1012F0004FF400311160094A0949137040F203129A
:101300000A604A60074A1370074A137010BD00BF95
:1013100034800440528BFF1F84E100E003C006408C
:1013200008C00440BC8BFF1F538BFF1F1B4B1B6867
:10133000DA042DE9F04106462DD5194B194D1C78DC
:10134000194FDFF86C800134272C88BF002415E08A
:10135000FFF750F940280DDC3B781B060ED52B78A3
:10136000124A0133272B88BF002318F8031011708D
:101370002B7003E0FF2801DD00F08CFE2B78A342E8
:10138000E6D00B4B1E550B4B01221A70044B1C7000
:10139000094BAC221A70BDE8F08100BF34800440D4
:1013A000BE8BFF1FBD8BFF1F04C0064007C0064059
:1013B000548BFF1F528BFF1F03C0064038B54518E2
:1013C000044603E014F8010BFFF7B0FFAC42F9D17B
:1013D00038BDFFFF10B5044C01E000F05BFE237840
:1013E000002BFAD110BD00BF528BFF1F044B1878A1
:1013F000044B1B78984238BF4030C01A704700BF7A
:10140000BC8BFF1F538BFF1F084B094A19781378B9
:10141000994207D001333F2B88BF00230549C85CA0
:10142000137070474FF0FF30704700BFBC8BFF1F39
:10143000538BFF1F7C8BFF1F074B1A78074B1B78C2
:101440009A4206D001333F2B88BF0023044AD05C68
:1014500070474FF0FF307047BC8BFF1F538BFF1F4F
:101460007C8BFF1F024B1A78024B1A70704700BF2B
:10147000538BFF1FBC8BFF1F10B5214B1B7803F054
:101480002003DBB273B11F4B1F4A18781F49137832
:10149000097801333F2B88BF00238B4202D01C49BF
:1014A000C85413701B490B7818465BB2002B15DA31
:1014B000134B1B781B0611D5174B184A1C78137851
:1014C0009C4202D16C230B7008E00133272B88BFAC
:1014D00000231349CC5C0B490C70137000F04003DF
:1014E000DBB25BB1064B1B7803F04003DBB22BB1E0
:1014F0000C4B00221A70074B2C221A7010BD00BF33
:1015000004C0064007C00640BC8BFF1F538BFF1F63
:101510007C8BFF1F03C00640BE8BFF1FBD8BFF1FD0
:10152000548BFF1F528BFF1F1FB572B6124B7022D8
:101530001A70124A412111700F2102F8011C8022F9
:101540001A701A781206FCD562B60D4B01A91868FC
:101550000A22FFF775F80B48002301AA9A5C2AB10A
:1015600000EB430101330A2B4A80F6D10133054ACF
:101570005B00137005B000BD000002400700024090
:10158000080002409484FF1FF0B50C4B0C4C1A78F5
:1015900042F0020504EBC50682F0010270600948C2
:1015A0001A700678002E0CBF8827C82747EA014129
:1015B00086F0010644F835100670F0BD288CFF1F38
:1015C0000080FF1FA08CFF1F431E032B10B510D8F7
:1015D00072B6094A52F8230010B1416842F823104C
:1015E000064A018832F81340611A22F8131062B6D5
:1015F00010BD002010BD00BF188CFF1F4490FF1FBE
:10160000013803280BD872B6064B53F8203000205F
:1016100001E05B680130002BFBD162B6704700200F
:10162000704700BF6C8CFF1F70B572B6184E194C16
:1016300001239A1912F8012C02F00802D2B2E2B189
:101640009900144A54F831502DB902EB4313083075
:101650005860114B09E041F0010154F8315065B96F
:1016600002EBC103083058600C4B42F831300C4B90
:101670001A78013A1A7062B670BD0133052BD8D1C1
:1016800062B6074B00221A70BDE8704000F0CCBB78
:101690005C3300000080FF1F88004000C80040004D
:1016A000968CFF1F431E032B30B532D84001194AD8
:1016B00040F01000101872B6174CE25C032A09D8EB
:1016C000DFE802F0160218050830022213E00830A5
:1016D000042210E01148124A50F8234014B940F88F
:1016E000231002E052F82300416042F823100FE07B
:1016F000032200E00522E25410F0080F01F1080374
:101700000A8843600CBF8823C82343EA024303606E
:1017100062B630BD0080FF1FD48BFF1F6C8CFF1F93
:101720007C8CFF1F2DE9F74FA34EA44C357805F0B4
:101730000403DBB2ABB1A24B1B7883B1A14A13788F
:1017400023B1013BDBB2137003B900BE9E4A13788C
:101750002BB1013BDBB213700BB900F079FC042311
:10176000337005F00802D2B2002A00F07B82974B5A
:101770001B781D094FEA930940F0F98104EBC90376
:10178000586854F83930C3F38303013B0C2B00F243
:10179000EB81DFE813F0A401A401E901E901E9010B
:1017A000E901E901E901C001E901E901E9010D00EF
:1017B0004368874A01685360864B874844F839304C
:1017C000864D1160002303600120287089B240F229
:1017D0008165A9422361A36119D8B1F5D06F80F06A
:1017E0002881B1F5817F00F0D88006D8802900F0EB
:1017F000BE80822940F03981BDE040F20230814252
:1018000000F00881B1F5A06F40F02F8131E1B1F512
:10181000106F10D004D8B1F5086F40F02681A0E019
:1018200042F22100814200F0578100F500708142B0
:1018300040F01B8115E19278614B604D1A702B6A64
:10184000180603D5686A083800F0EEFA644A0835CD
:101850009542F4D1DFF8B091DFF8B0B10025A84689
:10186000CA4655F8090005E04368009300F0DCFA29
:10187000009B18460028F7D15A4B4AF8050045F856
:101880000B00E85807E042680093019200F0CCFAA0
:10189000019A009B10460028F5D15851524BE85050
:1018A000524B23F81800524B18F80320023A032A2F
:1018B00008D8DFE802F002040204002200E001225E
:1018C00003F8082008F101080435B8F1040FC8D165
:1018D000484BDFF83C9100221A7001259846464B90
:1018E00005EB0902EB1812F8012C9B001A7002F0AC
:1018F0000802D2B23AB300F079FAAB0038B104EB87
:101900004512083050603D4A44F8332006E044F860
:10191000330098F80030013388F8003000F066FAA0
:10192000AB0043F0010338B104EBC3020830506050
:10193000284A44F8332006E044F8330098F8003091
:10194000013388F80030AA0042F00201013542F06C
:1019500003020023052D44F8313044F83230BED163
:1019600087E0174B264D1B782B70034684E0244DEF
:101970002B706B707FE09288042A00D975E0204DAF
:101980002B706B701F4B9200D3181B7803F002036F
:10199000DBB2002B6FD028706DE0918801F07F03DF
:1019A000042B62DC538803B15FE0164A89008A1871
:1019B000117821F0020156E0802007400080FF1FCF
:1019C0009F8CFF1F298CFF1FA18CFF1F90200740B9
:1019D0008C8CFF1FC8004000C08BFF1FA08CFF1F16
:1019E0008080FF1F6C8CFF1F7C8CFF1F4490FF1FAB
:1019F000D48BFF1F968CFF1F30C801108800400059
:101A0000978CFF1FC0200740188CFF1FC48BFF1F3F
:101A10005C330000918801F07F03042B25DC5388A0
:101A200003B122E0A04A89008A18117841F002012E
:101A300019E051889D4B928853F8085CA3F10C0083
:101A40009DB133F80CCC8C4509D133F80ACC9445C0
:101A500005D1090A03290CBF2B7803890CE00C334C
:101A6000EAE79178924A117003E08F4B0F221A70C7
:101A700032E01D4600E002238E4AB2F806904B4544
:101A800038BF9946B9F1400F34BFC8464FF04008FF
:101A900028464146FFF778FDB9EB0809454403D1D4
:101AA000B8F1400F07D017E0B9F1400F34BFC84676
:101AB0004FF0400800E0C84628464146FFF764FD65
:101AC000B9EB0809454402D1B8F1400F04D17A4B73
:101AD0007A4A1D60A2F800900122794B43E0754BD1
:101AE0001A8842F221039A4211D1764A0023C15C3E
:101AF00099540133072BFAD1724B1B68862B02D104
:101B0000714B0F221A7000200146FFF73DFD6F4B0D
:101B100044F8393028E0684BD3F80080B8F1000F62
:101B200018D0DFF89891B9F800A0BAF1400F34BF8F
:101B30005546402540462946FFF726FDC5EB0A03DA
:101B40009BB2A9F800300BB9402D01D108EB050379
:101B5000594A1360574B1A88B2F5A06F04D100227E
:101B60005A709A785A4B1A700122554B6DE004EB6B
:101B7000C90803F00803D8F80420013DD9B2A2F146
:101B80000800EDB2002937D000F04EF95148524B11
:101B900050F82510F1B14A6840F8252001F10802FB
:101BA000C8F804205A5D032A0BD8DFE802F00204CB
:101BB0000608032204E0022202E0052200E00422DB
:101BC0005A5518F0080F0A880CBF8823C82343EA27
:101BD000024342E05A5D032A07D8DFE802F04040A2
:101BE0000204002206E0012204E018F0080F0CBFF6
:101BF000022203225A5532E054F839301B0C22F8E5
:101C0000083C23B322F8061C42F8041C334A34492A
:101C100052F8257017B942F8250002E051F8252046
:101C20005060304A41F8250032F815105B1822F850
:101C3000153000F0DBF818B10830C8F8040006E0F1
:101C4000294B44F839001A7801321A7007E01F4B0B
:101C5000264A18F0080F08BF134644F83930082305
:101C6000337063E5E90751D515492048204C02231C
:101C70000B70204B1A70204B186098601F481A6137
:101C8000D8609A615C60084B0D2018701C48FF23D7
:101C9000037000F8083C02741A4A13701A4B9F2212
:101CA0001A7001230B704AE0C02007406C3300001B
:101CB000B08CFF1F8C8CFF1FC08BFF1F948CFF1FED
:101CC000942007404C90FF1F298CFF1FC800400044
:101CD000982007406C8CFF1FD48BFF1F188CFF1FB0
:101CE000C48BFF1F4490FF1F968CFF1F880040008D
:101CF000D88BFF1F288CFF1F0080FF1F2C8CFF1F1D
:101D0000882007408C200740842007402B0605D5FB
:101D10000C4B0D221A70802203F8402C05F00203B0
:101D2000DBB22BB1084B1A781A70022203F8082C88
:101D300005F01005EDB215B1044B10221A70BDE884
:101D4000FE8F00BFC020074088200740802007404A
:101D500008B5FFF7E9FB00231E491A465A50C81878
:101D60000833882B4260F9D11B4B1A6842F4802259
:101D70001A601A4B80221A701978184A0906FBD487
:101D8000144B1749C3F307200870C3F307401B0E19
:101D900008750B76FF2301F81C3C01F8143C01F890
:101DA0008C3C137843F0400313700021012302F8A8
:101DB000783C02F80C1C02F8883C0A4B70226FF445
:101DC000507C1A7063444FF400721A60064B102264
:101DD0001A7008BD0080FF1F348004400C210740AA
:101DE0009C20074049E400E00821074072B60C4AF5
:101DF0001168B1FA81F30B2B02D962B6002070474B
:101E00004FF0004020FA03F021EA0001116062B6B1
:101E1000044948225343C8180022CA504260704700
:101E2000AC84FF1FA080FF1F0C4B4822C31AB3FBDA
:101E3000F2F30B2B11D80A4A127822B1094A127810
:101E40000AB1FFF7F1BB72B6074A4FF0004121FA21
:101E500003F311681943116062B67047A080FF1F39
:101E6000968CFF1F9F8CFF1FAC84FF1F38B5114C51
:101E700023684BB10F4D28684288811801320C7AD3
:101E800001888A4212D30CE00B4B1B7813B94FF038
:101E9000FF340CE00320FFF797FB20600028E9D116
:101EA000F5E7FFF7C1FF00232B6000E042802046EA
:101EB00038BD00BFAC8CFF1F9F8CFF1F10B50C4CB2
:101EC00023681BB10A4B1B686BB902E0094B1B78F6
:101ED00013B94FF0FF3010BD0320FFF775FB2060F2
:101EE0000028EFD1F5E75A889B18187A10BD00BF7B
:101EF000AC8CFF1F9F8CFF1F044B9888044B1B6802
:101F00001BB11A885B88D31AC01870474490FF1F12
:101F1000AC8CFF1F2DE9F8432D4B2E4DDFF8C08010
:101F200001220C461A7006464BE02B682BBBDFF8EB
:101F3000A0904AF2F92798F8003013B9244A137098
:101F400014E00420FFF75CFB072808D8012389F878
:101F50000030FFF74BFF286078B989F80000013F97
:101F60001D4B01D01A782AB101221A704FF0FF30B0
:101F7000BDE8F88300F08EF8DDE72968164A488846
:101F800000231370C0F14002944238BF224600F192
:101F900008078018CF194880A41A02E0F05CF854B2
:101FA00001339342FAD1F6184B883F2B06D94023D0
:101FB0000B800420FFF776FB00232B60074B0522E4
:101FC0001A70002CB1D1024B20461C70BDE8F8837A
:101FD000A28CFF1FA48CFF1FA88CFF1FA18CFF1FCA
:101FE0009F8CFF1F07B502AB012103F8010D1846B6
:101FF000FFF790FF0EBDFFFFF8B5114B1B78EBB15B
:10200000104E114B3468114D01271F704CB163887D
:1020100000272F70042023802146FFF743FB376001
:1020200009E0FFF7E3FE014620B104202C70FFF722
:1020300039FB00E02F70044B00221A70F8BD00BF7E
:102040009F8CFF1FA48CFF1FA28CFF1FA18CFF1F62
:1020500038B50D4B1D78ADB90C4C216831B14B88AA
:1020600004200B80FFF71EFB256038BDFFF7BEFE86
:10207000014620B10420BDE83840FFF713BB044BF4
:1020800001221A7038BD00BFA28CFF1FA48CFF1F55
:10209000A18CFF1F7047FFFFF8B5164B164D1A684D
:1020A00042F080721A60154B1A6842F001021A6001
:1020B000134B2E681C680FE0237A63B121682F68E8
:1020C0000B68204698472A68E388D21B12099A4277
:1020D000A28088BFE2806469002CEDD1064B094ADA
:1020E0001B689B1B1B091380074A11888B4288BF02
:1020F0001380F8BDFCED00E0041000E0001000E0EB
:10210000B48CFF1FBA8CFF1FB88CFF1F10B5084698
:1021100014461146FEF796FD204610BD084608B548
:10212000FEF748FD012008BDFEF72EBEFEF7E4BD18
:10213000FEF7FCBDFEF712BEFEF7EABDFEF70EBDD0
:10214000480800F1376000F5D830B0FBF1F0FEF739
:1021500089BC480800F1376010B500F5D830B0FBF5
:10216000F1F01446FEF77EFC2046BDE81040FEF775
:10217000C7BCFFFF044B00221A711A73034A4FF4C5
:102180007A7199601A607047BC8CFF1FC0330000E1
:1021900010B5084614461146FEF774FF204610BDE0
:1021A000084608B5FEF726FF012008BDFEF7BEBFB2
:1021B000FEF774BFFEF78CBFFEF7A2BFFEF77ABF33
:1021C000FEF7ECBE480800F1376000F5D830B0FBF0
:1021D000F1F0FEF771BE480800F1376010B500F568
:1021E000D830B0FBF1F01446FEF766FE2046BDE89D
:1021F0001040FEF7A5BEFFFF044B00221A711A73B0
:10220000034A4FF47A7199601A607047CC8CFF1FB3
:10221000F033000010B5084614461146FFF7CEF81B
:10222000204610BD084608B5FFF780F8012008BD1C
:10223000FFF718B9FFF7CEB8FFF7E6B8FFF7FCB81D
:10224000FFF7D4B8FFF746B8480800F1B76000F5CB
:102250005840B0FBF1F0FEF7CBBF480800F1B76083
:1022600010B500F55840B0FBF1F01446FEF7C0FF82
:102270002046BDE81040FEF7FFBFFFFF044B0022E1
:102280001A711A73034A4FF47A7199601A60704791
:10229000DC8CFF1F203400002DE9F04100240746AC
:1022A0000D4626463B190A2219792846002300F0DC
:1022B00099F82B6880462E211B68284698470134E0
:1022C0004044032C0644EDD12846F9790A22002324
:1022D00000F088F88019BDE8F081FFFF044B054A43
:1022E0001A6000221A715A719A71DA71704700BF30
:1022F000EC8CFF1F5034000008B5034B01221A601C
:10230000024B1B68984708BD0C710340FC8CFF1FF3
:1023100008B5034B01221A60024B5B68984708BD61
:102320001C710340FC8CFF1F08B5034B01221A608F
:10233000024B9B68984708BD2C710340FC8CFF1F23
:1023400008B5034B01221A60024BDB68984708BDB1
:102350003C710340FC8CFF1F054B01221A60054BAA
:102360001A6822F400021A60034B00221A707047A8
:10237000007003403C800440F88CFF1F037B012267
:10238000591103F01F0302FA03F3084A42F82130FF
:102390008268002313604178054A5354D15C21B907
:1023A0000133042BFAD1FFF7D7BF704780E100E07B
:1023B000F48CFF1F037810B504460BB1FFF7DEFF66
:1023C0000023237010BDFFFF07B5054B1B88ADF838
:1023D0000430036801A95B68022298470EBD00BF64
:1023E00058340000F0B505468BB022B90368C9B275
:1023F0001B6898472CE0012A08BF0A2221B9302225
:102400008DF82520212413E02124B1FBF2F002FBFA
:102410001011C9B2092901D8303100E037310AAFB3
:102420003E1906F8241C014610B1013CE4B2ECE769
:1024300033B1013C0AAAE4B213192D2203F8242C6B
:102440002B6801AF5B6828463919C4F1220298470E
:102450000BB0F0BD10B50446FFF7ACFF204610BD31
:1024600003480449044A0023037000F0CDB900BFBB
:102470000C8DFF1F552400000084FF1F08B500F0DD
:102480006DF900F0A9F9FFF705FEFAE708461146D5
:10249000FFF740BD0846FFF7A5BDFFF7ADBDFFF74D
:1024A0000DBDFFF7E3BCFFF727BDFFFF044B002284
:1024B0001A711A73034A4FF47A7199601A6070475F
:1024C000208DFF1F6834000038B503254D43ADB2A1
:1024D00004460180458003714271284600F0D0F91E
:1024E000A06018B100212A4600F0A6FC204638BDA5
:1024F00010B50446806808B100F0CAF9607900217F
:10250000FEF760FA204610BD10B50121044640795F
:10251000FEF758FA60790021BDE81040FEF732BAA4
:1025200083682DE9F0410446002B00F08880FEF717
:1025300065FAE368C01A3128F9D972B6414A61795F
:10254000A36852F83110404A6788106840F08070E4
:1025500010603E4A106840F00100106022793C484B
:1025600002F00202D2B2DF19002A36D002684FF020
:10257000010E783224E013F801CB08258026D0F82C
:102580000080C2EB0808B8F1770FF8D916EA0C0FF3
:10259000026881F880E007D0D0F80080C2EB08081C
:1025A000B8F14B0FF8D906E0D0F80080C2EB08086C
:1025B000B8F1250FF8D97608013D81F800E1DED1A8
:1025C000BB42D8D322490B689B1A772BFBD962B642
:1025D000FEF714FAE060BDE8F08102684FF0010EEA
:1025E000F03224E013F801CB08258026D0F80080D3
:1025F000C2EB0808B8F1EF0FF8D916EA0C0F026821
:1026000081F880E007D0D0F80080C2EB0808B8F16C
:10261000720FF8D906E0D0F80080C2EB0808B8F1D4
:102620002F0FF8D97608013D81F800E1DED1BB42D9
:10263000D8D307490B689B1AEF2BFBD9C7E7BDE836
:10264000F08100BF4C320000FCED00E0001000E023
:10265000041000E038B5044608460D46FDF7E8FFD3
:102660002368024629465B6820469847054620466F
:10267000FFF7AAFE281838BD3B2A4FF03C0300D8CC
:1026800008E0B32A02D803FB01F07047EF2A06D80E
:10269000C2F1F002091A434301FB0230704758436C
:1026A0007047FFFFB0F5B47F2DE9F843044605D32A
:1026B0004FF4B473B0FBF3F003FB1044642928BF5C
:1026C0006421642A28BF642239B9FF235A43642352
:1026D000B2FBF3F08046074637E0312A03D801F118
:1026E0006405554304E0531864255D4301FB12550E
:1026F000C8267243561BEF2C94BF04F17802A4F154
:10270000F00229463046FFF7B7FF4FF0FF08DFF829
:10271000489008FB00F022462946B0FBF9F7304606
:10272000FFF7AAFF772C08FB00F08CBFA4F178021A
:1027300004F1F002B0FBF9F829463046FFF79CFFA0
:10274000FF22054B5043B0FBF3F04FEA082848EA5C
:1027500007473843BDE8F883C027090038B50D2086
:102760000121FEF72FF901210D20FEF70BF94FF49F
:102770007A70FEF761F912491248134DFFF76AFFAC
:102780001248FFF7C1FE12490E48FFF763FF0F48DA
:10279000FFF7C6FE0F490B48FFF75CFF0D20002135
:1027A000FEF7F0F80024204664213222FFF77AFF7A
:1027B00045F814000234B4F5B47FF4D138BD00BF3D
:1027C00080340000208DFF1F308DFF1F0090FF1F01
:1027D00086340000973400007047FFFF10B5074CA7
:1027E00086210E2220460323FFF76EFE0449054A88
:1027F0002046BDE8104000F007B800BF0090FF1F62
:10280000F12400000084FF1F03460846194600F02B
:1028100001B800BF30B405460C46134602202946D5
:10282000224630BC00F086BB70B543F2185643F226
:102830001855C0F20006C0F20005761BB61007D08E
:10284000043D002455F8043F01349847A642F9D1CD
:1028500043F2385643F21855C0F20006C0F20005A4
:10286000761B00F053FEB61008D0043D002455F846
:10287000043F01349847A642F9D170BD70BD00BF36
:1028800048F6C0030146C1F6FF73186800F008B8A7
:1028900048F6C0030146C1F6FF73186800F00CBC8F
:1028A0002DE9F04F01F10B04162C83B0074630D907
:1028B00024F00704E30F8C422CBF194643F00101BA
:1028C00000292FD1384600F01DFBB4F5FC7F2ED235
:1028D0004FEAD40C48F2B046C1F6FF7606EBCC02C4
:1028E000D368934200F01182596803F10808DA684E
:1028F000384621F0030499681B195C68CA6044F0EB
:10290000010491605C6000F0FFFA404603B0BDE84E
:10291000F08F002310248C422CBF194643F0010194
:102920000029CFD00C234FF000083B60EDE75FEAB1
:10293000542C04BF4FEAD40C4FEA4C0540F08F8072
:1029400048F2B046C1F6FF7606EB8505EB689D427E
:1029500006D10DE0002A80F25581DB689D4207D048
:10296000596821F003010A1B0F2AF3DD0CF1FF3C2B
:102970000CF1010C48F2B0423369C1F6FF7202F16A
:10298000080E734508BFD2F8049022D0586820F092
:102990000300011B0F2900F384810029C2F814E011
:1029A000C2F810E066DAB0F5007F80F04E81C10811
:1029B0004FF0010802EBC100891008FA01F85168D4
:1029C0008568D86048EA0109C2F804909D60EB6010
:1029D000836001224FEAAC0302FA03F34B4554D85B
:1029E00019EA030F0DD193402CF0030C19EA030FE1
:1029F0000CF1040C05D15B000CF1040C19EA030F77
:102A0000F9D006EBCC09E0464846C268904207D1AF
:102A10005BE1002980F28381D268904200F0558109
:102A2000556825F00305291B0F29F2DD904613197F
:102A3000D56844F0010058F8084F41F0010C50608F
:102A40003846C3F804C0E560AC6073613361C3F815
:102A50000CE0C3F808E0595000F056FA55E7BCF115
:102A6000040F00F2DE804FEA941C0CF1380C4FEAA0
:102A70004C0565E71A1803F108083846536843F017
:102A80000103536000F040FA3FE7B5686B6823F03C
:102A9000030A544504D8C4EB0A030F2B00F3A480A7
:102AA00049F21009D6F80814C1F6FF7905EB0A02BD
:102AB0000131D9F80030234408BF03F1100B06D0D0
:102AC00003F580530F3323F47F6323F00F0B384655
:102AD0005946019200F01AFA019A411C804600F012
:102AE0006881824200F23181D9F8043042455B446A
:102AF000C9F8043000F06681D6F8081448F2B040F6
:102B0000C1F6FF70013117BFC2EB0802C0F808849C
:102B10009B18C9F8043018F0070338461FBFC3F1EB
:102B20000802C3F58053904403F1080208EB0B033D
:102B300008BF4FF480521B051B0DC3EB020B594617
:102B400000F0E4F9431C00F04981C8EB000159444E
:102B500041F00101D9F80430B54249F21002C6F83B
:102B600008805B44C1F6FF72C8F80410C9F804304D
:102B700018D0BAF10F0F40F20B81AAF10C0069686E
:102B800020F007004FF0050C05EB000E0F2801F0B8
:102B9000010140EA01016960CEF804C0CEF808C026
:102BA00000F2208149F21002D9F82C10C1F6FF7210
:102BB000B5688B42D9F8301088BFD36249F2100251
:102BC000C1F6FF728B4288BF13636A6822F003026A
:102BD0009442C4EB020301D80F2B05DC38464FF0BA
:102BE000000800F091F990E62A1943F0010344F03F
:102BF000010438466C6005F108085360B26000F0CB
:102C000083F982E65918DA689C6838464D6803F102
:102C1000080845F00105E26094604D6000F074F929
:102C200073E6BCF1140F9CBF0CF15B0C4FEA4C0532
:102C30007FF686AEBCF1540F00F293804FEA143C4D
:102C40000CF16E0C4FEA4C057AE6420A042A75D95B
:102C5000142A9CBF02F15B094FEA490508D9542A9E
:102C600000F2C9804FEA103909F16E094FEA4905AF
:102C700006EB850548F2B048C1F6FF78AA68AA427B
:102C800079D0516821F00301884202D292689542BE
:102C9000F7D1D068D6F80490D8609A60D36083608A
:102CA00097E61D1941F00106556144F001041561D4
:102CB00038465C6003F10808C5F80CE0C5F808E088
:102CC0006E60695000F020F91FE608F10108083035
:102CD00018F0030F7FF499AE4A461CF0030FA2F1DF
:102CE00008010CF1FF3C00F09E8012688A42F4D08B
:102CF00072685B0093423FF6C8AE002B3FF4C5AE4E
:102D00001A4200F09580C4467BE603F108025B6935
:102D10009A4208BF0CF1020C3FF42CAEE4E5904659
:102D20005519D368384658F8082F6968D36041F0C0
:102D300001019A60696000F0E7F8E6E54FEA901952
:102D400009F138094FEA490592E7B54248F2B04324
:102D5000C1F6FF733FF4C8AE9D686A6822F00302B3
:102D600036E7BCF5AA7F19D84FEAD43C0CF1770CB2
:102D70004FEA4C05E4E50125D8F804104FEAA9090B
:102D8000104605FA09F545EA0109C8F8049083E7F9
:102D900001234546C8F80430002219E740F2545395
:102DA0009C450BD84FEA944C0CF17C0C4FEA4C0537
:102DB000C6E5B5686A6822F0030209E7FC254FF012
:102DC0007E0CBDE51105090D00297FF495AEB268B2
:102DD0000BEB0A0141F001015160E3E601214FF0E4
:102DE000000BB7E6384605F10801019200F064F9DE
:102DF000019A5368D6E6B2F5AA7F06D84FEAD039D1
:102E000009F177094FEA490532E740F25451FC25B0
:102E10008A424FF07E099EBF4FEA904909F17C0932
:102E20004FEA490524E7726822EA0302726060E70C
:102E30005B0008F1040863E7032AC9B270B408D83C
:102E40002AB10346121803F8011B9342FBD170BC50
:102E500070478307024409D0441C04F0030523464D
:102E600004F8011C0134002DF7D100E00346D51A07
:102E700001EB01243F2D04EB04442CDD1C604033A6
:102E8000D51A43F83C4C3F2D43F8384C43F8344CAA
:102E900043F8304C43F82C4C43F8284C43F8244C6E
:102EA00043F8204C43F81C4C43F8184C43F8144C9E
:102EB00043F8104C43F80C4C43F8084C43F8044CCE
:102EC000DCDC08E01C601033D51A43F80C4C43F8E6
:102ED000084C43F8044C0F2DF4DC032D08DD1D1DB8
:102EE000561B45F8044C032E2B4605F10405F7DC70
:102EF0009A42ACD90133013203F8011C01339342E9
:102F0000FAD1A4E7704700BF704700BF38B549F257
:102F10005404C1F6FF740546084600232360FDF7FC
:102F200061FB431C00D038BD2368002BFBD02B6015
:102F300038BD00BF2DE9F04143F20454C0F2000453
:102F400084B007462568AC6C002C42D066681F2E02
:102F50001ADD42F68104C0F2000424B94FF0FF30BC
:102F600004B0BDE8F0818C20039102920193FFF739
:102F700087FC0399029A019B04460028EED0A86CB6
:102F8000002684E84100AC64DFB1D4F8886026B341
:102F9000D6F8008165680120022F05F1200C00FAA7
:102FA00005F046F8252048EA000246F82C3008BF14
:102FB000D6F80431C6F8002104BF1843C6F804014E
:102FC00000E06568AB1C00200135656044F8231003
:102FD000C6E705F14C04AC64B8E742F68100C0F2E4
:102FE00000000028BAD04FF484700391029201933C
:102FF000FFF746FC0399029A019B06460028ADD0D4
:103000000020C6F80001C6F804018046C4F88860B4
:10301000C0E700BFF8B548F2B044C1F6FF740F46F0
:103020000546FFF76FFFA3685E6826F0030606F605
:10303000EF73DF1B3F0B013F3F03B7F5805F07DBFB
:1030400000212846FFF762FFA3689B19984204D02D
:103050002846FFF759FF0020F8BD79422846FFF7C0
:1030600055FF013010D049F21403A168C1F6FF7377
:10307000F61B284646F001061A684E60D71B1F60F3
:10308000FFF742FF0120F8BD00212846FFF73EFF71
:10309000A368C21A0F2ADBDD48F6B80449F214010E
:1030A000C1F6FF74C1F6FF7142F001025A60236855
:1030B000C01A0860CCE700BF2DE9F0410E468046FB
:1030C00000295CD0FFF71EFF48F2B04556F8041CFB
:1030D000C1F6FF75A6F1080421F00103AF68E218FC
:1030E0009742506820F0030067D011F00101506052
:1030F00035D000211618766816F0010F06D11B187E
:10310000906800294DD0D268C260906043F00102FF
:10311000E3506260F1B9B3F5007F32D35A0A042A52
:103120006CD898093830410005EB810548F2B04170
:10313000C1F6FF71AA68AA426BD0516821F0030161
:103140008B4202D292689542F7D1D368E360A260C5
:10315000D4609C604046BDE8F041FFF7D5BE56F80C
:10316000086C05F1080CA41B9B19A668664543D0A2
:10317000D4F80CC0C6F80CC0CCF80860BAE7BDE8BB
:10318000F081DB080121686805EBC3029B1001FA9E
:1031900003F3E260916818436860A160CC609460BA
:1031A000D8E7294EB042AED16C6143F001022C61E8
:1031B000E060A0606260E350CCE7C018CB0707D4A2
:1031C00056F8083CE41AC018A268E368D3609A6015
:1031D00048F6BC0240F00103C1F6FF726360AC60C8
:1031E00013689842B6D349F210034046C1F6FF7304
:1031F0001968FFF70FFFADE701217BE702F15B00E4
:103200004100142A90D9542A0CD8180B6E30410072
:103210008AE701264D688010134606FA00F0054340
:103220004D6093E7B2F5AA7F03D8D80B7730410001
:103230007AE740F254518A4203D8980C7C3041001E
:1032400072E7FC217E206FE7B884FF1F4008FE4331
:1032500040A004404408FE4344A004400018FE433C
:1032600000C004403000FE43309004403400FE4370
:10327000349004401C18FE431CC004401018FE4348
:1032800010C004400818FE4308C004400C18FE4358
:103290000CC004400C10FE430CB004401010FE4360
:1032A00010B004401810FE4318B004401C10FE4338
:1032B0001CB004401410FE4314B004400418FE4334
:1032C00004C004400010FE4300B004400008FE4368
:1032D00000A004400408FE4304A004400C08FE4380
:1032E0000CA004400808FE4308A004401418FE4344
:1032F00014C004401818FE4318C004400410FE43D4
:1033000004B004400810FE4308B004401400FE431B
:10331000149004404C08FE434CA004400420FE439B
:1033200004D004402410FE4324B004402010FE4387
:1033300020B004402810FE4328B004402C10FE4367
:103340002CB004400020FE4300D004404808FE4357
:1033500048A004401000FE431090044000151915C9
:10336000000100000C84FF1F12000000000200009A
:103370003684FF1F43000000000300009084FF1FFD
:1033800000000000010309041E84FF1F000000006C
:10339000020309047A84FF1F0000000003030904EC
:1033A0009484FF1F000000000000000000000000E7
:1033B00000000000FFFFFFFF000000000000000011
:1033C0001D2100000D2100003921000031210000E5
:1033D000352100002D210000412100005321000073
:1033E0003D21000029210000000000000000000035
:1033F000A121000091210000BD210000B5210000A5
:10340000B9210000B1210000C5210000D721000032
:10341000C1210000AD2100000000000000000000FC
:103420002522000015220000412200003922000060
:103430003D22000035220000492200005B220000EE
:1034400045220000312200000000000000000000C2
:1034500099220000000000000D0AFFFFFFFFFFFFA0
:103460000000000000000000952400008D240000F2
:10347000A7240000A32400009F2400009B24000038
:10348000626567696E00737472697020626567694E
:103490006E20646F6E650073747269702073686F5C
:1034A0007700FFFF000000000000000000000000A7
:1034B000000000000000000000000000000000000C
:1034C00000000000000000000000000000000000FC
:1034D00000000000000000000000000000000000EC
:1034E00000000000000000000000000000000000DC
:1034F00000000000000000000000000000000000CC
:1035000000000000C488FF1F43000000F8B500BFA2
:10351000F8BC08BC9E467047990400007521000065
:10352000F92100007D220000DD220000612400005E
:08353000AD240000DD270000BE
:10353800000000000A0400005890FF1F120100025A
:1035480002000040C01683040001010203011803B1
:103558005400650065006E00730079006400750012
:1035680069006E006F0009024300020100C03209C1
:1035780004000001020201000524001001052401D5
:103588000101042402060524060001070582031030
:10359800004009040100020A000000070503024078
:1035A8000000070584024000000016035500530080
:1035B80042002000530065007200690061006C0041
:1035C800040309040C0300000000000000000000D0
:1035D800000000000000000000000000FFFFFFFFE7
:1035E8000000000000000000B084FF1FB084FF1F2F
:1035F800B884FF1FB884FF1FC084FF1FC084FF1F4B
:10360800C884FF1FC884FF1FD084FF1FD084FF1FFA
:10361800D884FF1FD884FF1FE084FF1FE084FF1FAA
:10362800E884FF1FE884FF1FF084FF1FF084FF1F5A
:10363800F884FF1FF884FF1F0085FF1F0085FF1F08
:103648000885FF1F0885FF1F1085FF1F1085FF1FB6
:103658001885FF1F1885FF1F2085FF1F2085FF1F66
:103668002885FF1F2885FF1F3085FF1F3085FF1F16
:103678003885FF1F3885FF1F4085FF1F4085FF1FC6
:103688004885FF1F4885FF1F5085FF1F5085FF1F76
:103698005885FF1F5885FF1F6085FF1F6085FF1F26
:1036A8006885FF1F6885FF1F7085FF1F7085FF1FD6
:1036B8007885FF1F7885FF1F8085FF1F8085FF1F86
:1036C8008885FF1F8885FF1F9085FF1F9085FF1F36
:1036D8009885FF1F9885FF1FA085FF1FA085FF1FE6
:1036E800A885FF1FA885FF1FB085FF1FB085FF1F96
:1036F800B885FF1FB885FF1FC085FF1FC085FF1F46
:10370800C885FF1FC885FF1FD085FF1FD085FF1FF5
:10371800D885FF1FD885FF1FE085FF1FE085FF1FA5
:10372800E885FF1FE885FF1FF085FF1FF085FF1F55
:10373800F885FF1FF885FF1F0086FF1F0086FF1F03
:103748000886FF1F0886FF1F1086FF1F1086FF1FB1
:103758001886FF1F1886FF1F2086FF1F2086FF1F61
:103768002886FF1F2886FF1F3086FF1F3086FF1F11
:103778003886FF1F3886FF1F4086FF1F4086FF1FC1
:103788004886FF1F4886FF1F5086FF1F5086FF1F71
:103798005886FF1F5886FF1F6086FF1F6086FF1F21
:1037A8006886FF1F6886FF1F7086FF1F7086FF1FD1
:1037B8007886FF1F7886FF1F8086FF1F8086FF1F81
:1037C8008886FF1F8886FF1F9086FF1F9086FF1F31
:1037D8009886FF1F9886FF1FA086FF1FA086FF1FE1
:1037E800A886FF1FA886FF1FB086FF1FB086FF1F91
:1037F800B886FF1FB886FF1FC086FF1FC086FF1F41
:10380800C886FF1FC886FF1FD086FF1FD086FF1FF0
:10381800D886FF1FD886FF1FE086FF1FE086FF1FA0
:10382800E886FF1FE886FF1FF086FF1FF086FF1F50
:10383800F886FF1FF886FF1F0087FF1F0087FF1FFE
:103848000887FF1F0887FF1F1087FF1F1087FF1FAC
:103858001887FF1F1887FF1F2087FF1F2087FF1F5C
:103868002887FF1F2887FF1F3087FF1F3087FF1F0C
:103878003887FF1F3887FF1F4087FF1F4087FF1FBC
:103888004887FF1F4887FF1F5087FF1F5087FF1F6C
:103898005887FF1F5887FF1F6087FF1F6087FF1F1C
:1038A8006887FF1F6887FF1F7087FF1F7087FF1FCC
:1038B8007887FF1F7887FF1F8087FF1F8087FF1F7C
:1038C8008887FF1F8887FF1F9087FF1F9087FF1F2C
:1038D8009887FF1F9887FF1FA087FF1FA087FF1FDC
:1038E800A887FF1FA887FF1FB087FF1FB087FF1F8C
:1038F800B887FF1FB887FF1FC087FF1FC087FF1F3C
:10390800C887FF1FC887FF1FD087FF1FD087FF1FEB
:10391800D887FF1FD887FF1FE087FF1FE087FF1F9B
:10392800E887FF1FE887FF1FF087FF1FF087FF1F4B
:10393800F887FF1FF887FF1F0088FF1F0088FF1FF9
:103948000888FF1F0888FF1F1088FF1F1088FF1FA7
:103958001888FF1F1888FF1F2088FF1F2088FF1F57
:103968002888FF1F2888FF1F3088FF1F3088FF1F07
:103978003888FF1F3888FF1F4088FF1F4088FF1FB7
:103988004888FF1F4888FF1F5088FF1F5088FF1F67
:103998005888FF1F5888FF1F6088FF1F6088FF1F17
:1039A8006888FF1F6888FF1F7088FF1F7088FF1FC7
:1039B8007888FF1F7888FF1F8088FF1F8088FF1F77
:1039C8008888FF1F8888FF1F9088FF1F9088FF1F27
:1039D8009888FF1F9888FF1FA088FF1FA088FF1FD7
:1039E800A888FF1FA888FF1FFFFFFFFF0000020035
:1039F800C488FF1F00000000E4340000C434000045
:103A0800A4340000000000000000000000000000D6
:103A18000000000008350000000000000000000061
:103A2800000000000000000000000000000000008E
:103A3800000000000000000000000000000000007E
:103A4800000000000000000000000000000000006E
:103A5800000000000000000000000000000000005E
:103A6800000000000000000000000000000000004E
:103A7800000000000000000000000000000000003E
:103A8800000000000000000000000000000000002E
:103A9800000000000000000000000000000000001E
:103AA800000000000000000000000000000000000E
:103AB80000000000000000000000000000000000FE
:103AC80000000000000000000000000000000000EE
:103AD80000000000000000000000000000000000DE
:043AE80000000000DA
:00000001FF
